{
  "_format": "hh-sol-artifact-1",
  "contractName": "NFTMarketplace",
  "sourceName": "contracts/NFTMarketplace.sol",
  "abi": [
    {
      "inputs": [],
      "stateMutability": "nonpayable",
      "type": "constructor"
    },
    {
      "anonymous": false,
      "inputs": [
        {
          "indexed": true,
          "internalType": "address",
          "name": "owner",
          "type": "address"
        },
        {
          "indexed": true,
          "internalType": "address",
          "name": "approved",
          "type": "address"
        },
        {
          "indexed": true,
          "internalType": "uint256",
          "name": "tokenId",
          "type": "uint256"
        }
      ],
      "name": "Approval",
      "type": "event"
    },
    {
      "anonymous": false,
      "inputs": [
        {
          "indexed": true,
          "internalType": "address",
          "name": "owner",
          "type": "address"
        },
        {
          "indexed": true,
          "internalType": "address",
          "name": "operator",
          "type": "address"
        },
        {
          "indexed": false,
          "internalType": "bool",
          "name": "approved",
          "type": "bool"
        }
      ],
      "name": "ApprovalForAll",
      "type": "event"
    },
    {
      "anonymous": false,
      "inputs": [
        {
          "indexed": false,
          "internalType": "uint256",
          "name": "_fromTokenId",
          "type": "uint256"
        },
        {
          "indexed": false,
          "internalType": "uint256",
          "name": "_toTokenId",
          "type": "uint256"
        }
      ],
      "name": "BatchMetadataUpdate",
      "type": "event"
    },
    {
      "anonymous": false,
      "inputs": [
        {
          "indexed": true,
          "internalType": "uint256",
          "name": "tokenId",
          "type": "uint256"
        },
        {
          "indexed": false,
          "internalType": "address",
          "name": "seller",
          "type": "address"
        },
        {
          "indexed": false,
          "internalType": "address",
          "name": "owner",
          "type": "address"
        },
        {
          "indexed": false,
          "internalType": "uint256",
          "name": "price",
          "type": "uint256"
        },
        {
          "indexed": false,
          "internalType": "bool",
          "name": "sold",
          "type": "bool"
        }
      ],
      "name": "MarketItemCreated",
      "type": "event"
    },
    {
      "anonymous": false,
      "inputs": [
        {
          "indexed": false,
          "internalType": "uint256",
          "name": "_tokenId",
          "type": "uint256"
        }
      ],
      "name": "MetadataUpdate",
      "type": "event"
    },
    {
      "anonymous": false,
      "inputs": [
        {
          "indexed": true,
          "internalType": "uint256",
          "name": "tokenId",
          "type": "uint256"
        },
        {
          "indexed": false,
          "internalType": "address",
          "name": "liker",
          "type": "address"
        },
        {
          "indexed": false,
          "internalType": "uint256",
          "name": "totalLikes",
          "type": "uint256"
        }
      ],
      "name": "NFTLiked",
      "type": "event"
    },
    {
      "anonymous": false,
      "inputs": [
        {
          "indexed": true,
          "internalType": "address",
          "name": "from",
          "type": "address"
        },
        {
          "indexed": true,
          "internalType": "address",
          "name": "to",
          "type": "address"
        },
        {
          "indexed": true,
          "internalType": "uint256",
          "name": "tokenId",
          "type": "uint256"
        }
      ],
      "name": "Transfer",
      "type": "event"
    },
    {
      "inputs": [
        {
          "internalType": "address",
          "name": "to",
          "type": "address"
        },
        {
          "internalType": "uint256",
          "name": "tokenId",
          "type": "uint256"
        }
      ],
      "name": "approve",
      "outputs": [],
      "stateMutability": "nonpayable",
      "type": "function"
    },
    {
      "inputs": [
        {
          "internalType": "address",
          "name": "owner",
          "type": "address"
        }
      ],
      "name": "balanceOf",
      "outputs": [
        {
          "internalType": "uint256",
          "name": "",
          "type": "uint256"
        }
      ],
      "stateMutability": "view",
      "type": "function"
    },
    {
      "inputs": [
        {
          "internalType": "uint256",
          "name": "tokenId",
          "type": "uint256"
        }
      ],
      "name": "createMarketSale",
      "outputs": [],
      "stateMutability": "payable",
      "type": "function"
    },
    {
      "inputs": [],
      "name": "fetchMarketItems",
      "outputs": [
        {
          "components": [
            {
              "internalType": "uint256",
              "name": "tokenId",
              "type": "uint256"
            },
            {
              "internalType": "address payable",
              "name": "seller",
              "type": "address"
            },
            {
              "internalType": "address payable",
              "name": "owner",
              "type": "address"
            },
            {
              "internalType": "uint256",
              "name": "price",
              "type": "uint256"
            },
            {
              "internalType": "bool",
              "name": "sold",
              "type": "bool"
            },
            {
              "internalType": "uint256",
              "name": "likes",
              "type": "uint256"
            }
          ],
          "internalType": "struct NFTMarketplace.MarketItem[]",
          "name": "",
          "type": "tuple[]"
        }
      ],
      "stateMutability": "view",
      "type": "function"
    },
    {
      "inputs": [],
      "name": "fetchMyNFTs",
      "outputs": [
        {
          "components": [
            {
              "internalType": "uint256",
              "name": "tokenId",
              "type": "uint256"
            },
            {
              "internalType": "address payable",
              "name": "seller",
              "type": "address"
            },
            {
              "internalType": "address payable",
              "name": "owner",
              "type": "address"
            },
            {
              "internalType": "uint256",
              "name": "price",
              "type": "uint256"
            },
            {
              "internalType": "bool",
              "name": "sold",
              "type": "bool"
            },
            {
              "internalType": "uint256",
              "name": "likes",
              "type": "uint256"
            }
          ],
          "internalType": "struct NFTMarketplace.MarketItem[]",
          "name": "",
          "type": "tuple[]"
        }
      ],
      "stateMutability": "view",
      "type": "function"
    },
    {
      "inputs": [
        {
          "internalType": "uint256",
          "name": "tokenId",
          "type": "uint256"
        }
      ],
      "name": "getApproved",
      "outputs": [
        {
          "internalType": "address",
          "name": "",
          "type": "address"
        }
      ],
      "stateMutability": "view",
      "type": "function"
    },
    {
      "inputs": [],
      "name": "getListingPrice",
      "outputs": [
        {
          "internalType": "uint256",
          "name": "",
          "type": "uint256"
        }
      ],
      "stateMutability": "view",
      "type": "function"
    },
    {
      "inputs": [
        {
          "internalType": "address",
          "name": "owner",
          "type": "address"
        },
        {
          "internalType": "address",
          "name": "operator",
          "type": "address"
        }
      ],
      "name": "isApprovedForAll",
      "outputs": [
        {
          "internalType": "bool",
          "name": "",
          "type": "bool"
        }
      ],
      "stateMutability": "view",
      "type": "function"
    },
    {
      "inputs": [
        {
          "internalType": "uint256",
          "name": "tokenId",
          "type": "uint256"
        }
      ],
      "name": "likeNFT",
      "outputs": [],
      "stateMutability": "nonpayable",
      "type": "function"
    },
    {
      "inputs": [
        {
          "internalType": "string",
          "name": "tokenURI",
          "type": "string"
        },
        {
          "internalType": "uint256",
          "name": "price",
          "type": "uint256"
        }
      ],
      "name": "mintToken",
      "outputs": [
        {
          "internalType": "uint256",
          "name": "",
          "type": "uint256"
        }
      ],
      "stateMutability": "payable",
      "type": "function"
    },
    {
      "inputs": [],
      "name": "name",
      "outputs": [
        {
          "internalType": "string",
          "name": "",
          "type": "string"
        }
      ],
      "stateMutability": "view",
      "type": "function"
    },
    {
      "inputs": [
        {
          "internalType": "uint256",
          "name": "tokenId",
          "type": "uint256"
        }
      ],
      "name": "ownerOf",
      "outputs": [
        {
          "internalType": "address",
          "name": "",
          "type": "address"
        }
      ],
      "stateMutability": "view",
      "type": "function"
    },
    {
      "inputs": [
        {
          "internalType": "address",
          "name": "from",
          "type": "address"
        },
        {
          "internalType": "address",
          "name": "to",
          "type": "address"
        },
        {
          "internalType": "uint256",
          "name": "tokenId",
          "type": "uint256"
        }
      ],
      "name": "safeTransferFrom",
      "outputs": [],
      "stateMutability": "nonpayable",
      "type": "function"
    },
    {
      "inputs": [
        {
          "internalType": "address",
          "name": "from",
          "type": "address"
        },
        {
          "internalType": "address",
          "name": "to",
          "type": "address"
        },
        {
          "internalType": "uint256",
          "name": "tokenId",
          "type": "uint256"
        },
        {
          "internalType": "bytes",
          "name": "data",
          "type": "bytes"
        }
      ],
      "name": "safeTransferFrom",
      "outputs": [],
      "stateMutability": "nonpayable",
      "type": "function"
    },
    {
      "inputs": [
        {
          "internalType": "address",
          "name": "operator",
          "type": "address"
        },
        {
          "internalType": "bool",
          "name": "approved",
          "type": "bool"
        }
      ],
      "name": "setApprovalForAll",
      "outputs": [],
      "stateMutability": "nonpayable",
      "type": "function"
    },
    {
      "inputs": [
        {
          "internalType": "bytes4",
          "name": "interfaceId",
          "type": "bytes4"
        }
      ],
      "name": "supportsInterface",
      "outputs": [
        {
          "internalType": "bool",
          "name": "",
          "type": "bool"
        }
      ],
      "stateMutability": "view",
      "type": "function"
    },
    {
      "inputs": [],
      "name": "symbol",
      "outputs": [
        {
          "internalType": "string",
          "name": "",
          "type": "string"
        }
      ],
      "stateMutability": "view",
      "type": "function"
    },
    {
      "inputs": [
        {
          "internalType": "uint256",
          "name": "tokenId",
          "type": "uint256"
        }
      ],
      "name": "tokenURI",
      "outputs": [
        {
          "internalType": "string",
          "name": "",
          "type": "string"
        }
      ],
      "stateMutability": "view",
      "type": "function"
    },
    {
      "inputs": [
        {
          "internalType": "address",
          "name": "from",
          "type": "address"
        },
        {
          "internalType": "address",
          "name": "to",
          "type": "address"
        },
        {
          "internalType": "uint256",
          "name": "tokenId",
          "type": "uint256"
        }
      ],
      "name": "transferFrom",
      "outputs": [],
      "stateMutability": "nonpayable",
      "type": "function"
    }
  ],
  "bytecode": "0x60806040526608e1bc9bf04000600b553480156200001c57600080fd5b506040518060400160405280600f81526020017f54657374204e4654204d61726b657400000000000000000000000000000000008152506040518060400160405280600381526020017f544e4d000000000000000000000000000000000000000000000000000000000081525081600090816200009a919062000378565b508060019081620000ac919062000378565b505050600160078190555033600a60006101000a81548173ffffffffffffffffffffffffffffffffffffffff021916908373ffffffffffffffffffffffffffffffffffffffff1602179055506200045f565b600081519050919050565b7f4e487b7100000000000000000000000000000000000000000000000000000000600052604160045260246000fd5b7f4e487b7100000000000000000000000000000000000000000000000000000000600052602260045260246000fd5b600060028204905060018216806200018057607f821691505b60208210810362000196576200019562000138565b5b50919050565b60008190508160005260206000209050919050565b60006020601f8301049050919050565b600082821b905092915050565b600060088302620002007fffffffffffffffffffffffffffffffffffffffffffffffffffffffffffffffff82620001c1565b6200020c8683620001c1565b95508019841693508086168417925050509392505050565b6000819050919050565b6000819050919050565b600062000259620002536200024d8462000224565b6200022e565b62000224565b9050919050565b6000819050919050565b620002758362000238565b6200028d620002848262000260565b848454620001ce565b825550505050565b600090565b620002a462000295565b620002b18184846200026a565b505050565b5b81811015620002d957620002cd6000826200029a565b600181019050620002b7565b5050565b601f8211156200032857620002f2816200019c565b620002fd84620001b1565b810160208510156200030d578190505b620003256200031c85620001b1565b830182620002b6565b50505b505050565b600082821c905092915050565b60006200034d600019846008026200032d565b1980831691505092915050565b60006200036883836200033a565b9150826002028217905092915050565b6200038382620000fe565b67ffffffffffffffff8111156200039f576200039e62000109565b5b620003ab825462000167565b620003b8828285620002dd565b600060209050601f831160018114620003f05760008415620003db578287015190505b620003e785826200035a565b86555062000457565b601f19841662000400866200019c565b60005b828110156200042a5784890151825560018201915060208501945060208101905062000403565b868310156200044a578489015162000446601f8916826200033a565b8355505b6001600288020188555050505b505050505050565b613db9806200046f6000396000f3fe6080604052600436106101145760003560e01c80636352211e116100a0578063be9af53611610064578063be9af536146103b1578063c046372c146103cd578063c87b56dd146103fd578063da472a0f1461043a578063e985e9c51461046357610114565b80636352211e146102ba57806370a08231146102f757806395d89b4114610334578063a22cb4651461035f578063b88d4fde1461038857610114565b80630f08efe0116100e75780630f08efe0146101e757806312e8558514610212578063202e37401461023d57806323b872dd1461026857806342842e0e1461029157610114565b806301ffc9a71461011957806306fdde0314610156578063081812fc14610181578063095ea7b3146101be575b600080fd5b34801561012557600080fd5b50610140600480360381019061013b91906126f3565b6104a0565b60405161014d919061273b565b60405180910390f35b34801561016257600080fd5b5061016b610501565b60405161017891906127e6565b60405180910390f35b34801561018d57600080fd5b506101a860048036038101906101a3919061283e565b610593565b6040516101b591906128ac565b60405180910390f35b3480156101ca57600080fd5b506101e560048036038101906101e091906128f3565b6105d9565b005b3480156101f357600080fd5b506101fc6106f0565b6040516102099190612a9c565b60405180910390f35b34801561021e57600080fd5b50610227610956565b6040516102349190612acd565b60405180910390f35b34801561024957600080fd5b50610252610960565b60405161025f9190612a9c565b60405180910390f35b34801561027457600080fd5b5061028f600480360381019061028a9190612ae8565b610c4a565b005b34801561029d57600080fd5b506102b860048036038101906102b39190612ae8565b610caa565b005b3480156102c657600080fd5b506102e160048036038101906102dc919061283e565b610cca565b6040516102ee91906128ac565b60405180910390f35b34801561030357600080fd5b5061031e60048036038101906103199190612b3b565b610d50565b60405161032b9190612acd565b60405180910390f35b34801561034057600080fd5b50610349610e07565b60405161035691906127e6565b60405180910390f35b34801561036b57600080fd5b5061038660048036038101906103819190612b94565b610e99565b005b34801561039457600080fd5b506103af60048036038101906103aa9190612d09565b610eaf565b005b6103cb60048036038101906103c6919061283e565b610f11565b005b6103e760048036038101906103e29190612e2d565b611098565b6040516103f49190612acd565b60405180910390f35b34801561040957600080fd5b50610424600480360381019061041f919061283e565b611160565b60405161043191906127e6565b60405180910390f35b34801561044657600080fd5b50610461600480360381019061045c919061283e565b611272565b005b34801561046f57600080fd5b5061048a60048036038101906104859190612e89565b611442565b604051610497919061273b565b60405180910390f35b6000634906490660e01b7bffffffffffffffffffffffffffffffffffffffffffffffffffffffff1916827bffffffffffffffffffffffffffffffffffffffffffffffffffffffff191614806104fa57506104f9826114d6565b5b9050919050565b60606000805461051090612ef8565b80601f016020809104026020016040519081016040528092919081815260200182805461053c90612ef8565b80156105895780601f1061055e57610100808354040283529160200191610589565b820191906000526020600020905b81548152906001019060200180831161056c57829003601f168201915b5050505050905090565b600061059e826115b8565b6004600083815260200190815260200160002060009054906101000a900473ffffffffffffffffffffffffffffffffffffffff169050919050565b60006105e482610cca565b90508073ffffffffffffffffffffffffffffffffffffffff168373ffffffffffffffffffffffffffffffffffffffff1603610654576040517f08c379a000000000000000000000000000000000000000000000000000000000815260040161064b90612f9b565b60405180910390fd5b8073ffffffffffffffffffffffffffffffffffffffff16610673611603565b73ffffffffffffffffffffffffffffffffffffffff1614806106a257506106a18161069c611603565b611442565b5b6106e1576040517f08c379a00000000000000000000000000000000000000000000000000000000081526004016106d89061302d565b60405180910390fd5b6106eb838361160b565b505050565b606060006106fe60086116c4565b9050600061070c60096116c4565b61071660086116c4565b610720919061307c565b90506000808267ffffffffffffffff81111561073f5761073e612bde565b5b60405190808252806020026020018201604052801561077857816020015b610765612623565b81526020019060019003908161075d5790505b50905060005b8481101561094b573073ffffffffffffffffffffffffffffffffffffffff16600c60006001846107ae91906130b0565b815260200190815260200160002060020160009054906101000a900473ffffffffffffffffffffffffffffffffffffffff1673ffffffffffffffffffffffffffffffffffffffff160361093857600c600060018361080c91906130b0565b81526020019081526020016000206040518060c0016040529081600082015481526020016001820160009054906101000a900473ffffffffffffffffffffffffffffffffffffffff1673ffffffffffffffffffffffffffffffffffffffff1673ffffffffffffffffffffffffffffffffffffffff1681526020016002820160009054906101000a900473ffffffffffffffffffffffffffffffffffffffff1673ffffffffffffffffffffffffffffffffffffffff1673ffffffffffffffffffffffffffffffffffffffff168152602001600382015481526020016004820160009054906101000a900460ff1615151515815260200160058201548152505082848151811061091d5761091c6130e4565b5b602002602001018190525060018361093591906130b0565b92505b808061094390613113565b91505061077e565b508094505050505090565b6000600b54905090565b6060600061096e60086116c4565b905060008060005b83811015610a16573373ffffffffffffffffffffffffffffffffffffffff16600c60006001846109a691906130b0565b815260200190815260200160002060020160009054906101000a900473ffffffffffffffffffffffffffffffffffffffff1673ffffffffffffffffffffffffffffffffffffffff1603610a0357600183610a0091906130b0565b92505b8080610a0e90613113565b915050610976565b5060008267ffffffffffffffff811115610a3357610a32612bde565b5b604051908082528060200260200182016040528015610a6c57816020015b610a59612623565b815260200190600190039081610a515790505b50905060005b84811015610c3f573373ffffffffffffffffffffffffffffffffffffffff16600c6000600184610aa291906130b0565b815260200190815260200160002060020160009054906101000a900473ffffffffffffffffffffffffffffffffffffffff1673ffffffffffffffffffffffffffffffffffffffff1603610c2c57600c6000600183610b0091906130b0565b81526020019081526020016000206040518060c0016040529081600082015481526020016001820160009054906101000a900473ffffffffffffffffffffffffffffffffffffffff1673ffffffffffffffffffffffffffffffffffffffff1673ffffffffffffffffffffffffffffffffffffffff1681526020016002820160009054906101000a900473ffffffffffffffffffffffffffffffffffffffff1673ffffffffffffffffffffffffffffffffffffffff1673ffffffffffffffffffffffffffffffffffffffff168152602001600382015481526020016004820160009054906101000a900460ff16151515158152602001600582015481525050828481518110610c1157610c106130e4565b5b6020026020010181905250600183610c2991906130b0565b92505b8080610c3790613113565b915050610a72565b508094505050505090565b610c5b610c55611603565b826116d2565b610c9a576040517f08c379a0000000000000000000000000000000000000000000000000000000008152600401610c91906131cd565b60405180910390fd5b610ca5838383611767565b505050565b610cc583838360405180602001604052806000815250610eaf565b505050565b600080610cd683611a60565b9050600073ffffffffffffffffffffffffffffffffffffffff168173ffffffffffffffffffffffffffffffffffffffff1603610d47576040517f08c379a0000000000000000000000000000000000000000000000000000000008152600401610d3e90613239565b60405180910390fd5b80915050919050565b60008073ffffffffffffffffffffffffffffffffffffffff168273ffffffffffffffffffffffffffffffffffffffff1603610dc0576040517f08c379a0000000000000000000000000000000000000000000000000000000008152600401610db7906132cb565b60405180910390fd5b600360008373ffffffffffffffffffffffffffffffffffffffff1673ffffffffffffffffffffffffffffffffffffffff168152602001908152602001600020549050919050565b606060018054610e1690612ef8565b80601f0160208091040260200160405190810160405280929190818152602001828054610e4290612ef8565b8015610e8f5780601f10610e6457610100808354040283529160200191610e8f565b820191906000526020600020905b815481529060010190602001808311610e7257829003601f168201915b5050505050905090565b610eab610ea4611603565b8383611a9d565b5050565b610ec0610eba611603565b836116d2565b610eff576040517f08c379a0000000000000000000000000000000000000000000000000000000008152600401610ef6906131cd565b60405180910390fd5b610f0b84848484611c09565b50505050565b610f19611c65565b6000600c6000838152602001908152602001600020600301549050803414610f76576040517f08c379a0000000000000000000000000000000000000000000000000000000008152600401610f6d90613337565b60405180910390fd5b33600c600084815260200190815260200160002060020160006101000a81548173ffffffffffffffffffffffffffffffffffffffff021916908373ffffffffffffffffffffffffffffffffffffffff1602179055506001600c600084815260200190815260200160002060040160006101000a81548160ff0219169083151502179055506110046009611cb4565b61100f303384611767565b600c600083815260200190815260200160002060010160009054906101000a900473ffffffffffffffffffffffffffffffffffffffff1673ffffffffffffffffffffffffffffffffffffffff166108fc349081150290604051600060405180830381858888f1935050505015801561108b573d6000803e3d6000fd5b5050611095611cca565b50565b60008082116110dc576040517f08c379a00000000000000000000000000000000000000000000000000000000081526004016110d3906133a3565b60405180910390fd5b600b543414611120576040517f08c379a000000000000000000000000000000000000000000000000000000000815260040161111790613435565b60405180910390fd5b61112a6008611cb4565b600061113660086116c4565b90506111423382611cd4565b61114c8185611ef1565b6111568184611f95565b8091505092915050565b606061116b826115b8565b600060066000848152602001908152602001600020805461118b90612ef8565b80601f01602080910402602001604051908101604052809291908181526020018280546111b790612ef8565b80156112045780601f106111d957610100808354040283529160200191611204565b820191906000526020600020905b8154815290600101906020018083116111e757829003601f168201915b505050505090506000611215612122565b9050600081510361122a57819250505061126d565b60008251111561125f578082604051602001611247929190613491565b6040516020818303038152906040529250505061126d565b61126884612139565b925050505b919050565b61127b816121a1565b6112ba576040517f08c379a00000000000000000000000000000000000000000000000000000000081526004016112b190613501565b60405180910390fd5b600d600082815260200190815260200160002060003373ffffffffffffffffffffffffffffffffffffffff1673ffffffffffffffffffffffffffffffffffffffff16815260200190815260200160002060009054906101000a900460ff1615611358576040517f08c379a000000000000000000000000000000000000000000000000000000000815260040161134f9061356d565b60405180910390fd5b6001600d600083815260200190815260200160002060003373ffffffffffffffffffffffffffffffffffffffff1673ffffffffffffffffffffffffffffffffffffffff16815260200190815260200160002060006101000a81548160ff0219169083151502179055506001600c600083815260200190815260200160002060050160008282546113e891906130b0565b92505081905550807f1d47eaf7725d80821a04ffda9af45be7be1f39ed5ae6e6d309853e01fd95dc3e33600c60008581526020019081526020016000206005015460405161143792919061358d565b60405180910390a250565b6000600560008473ffffffffffffffffffffffffffffffffffffffff1673ffffffffffffffffffffffffffffffffffffffff16815260200190815260200160002060008373ffffffffffffffffffffffffffffffffffffffff1673ffffffffffffffffffffffffffffffffffffffff16815260200190815260200160002060009054906101000a900460ff16905092915050565b60007f80ac58cd000000000000000000000000000000000000000000000000000000007bffffffffffffffffffffffffffffffffffffffffffffffffffffffff1916827bffffffffffffffffffffffffffffffffffffffffffffffffffffffff191614806115a157507f5b5e139f000000000000000000000000000000000000000000000000000000007bffffffffffffffffffffffffffffffffffffffffffffffffffffffff1916827bffffffffffffffffffffffffffffffffffffffffffffffffffffffff1916145b806115b157506115b0826121e2565b5b9050919050565b6115c1816121a1565b611600576040517f08c379a00000000000000000000000000000000000000000000000000000000081526004016115f790613239565b60405180910390fd5b50565b600033905090565b816004600083815260200190815260200160002060006101000a81548173ffffffffffffffffffffffffffffffffffffffff021916908373ffffffffffffffffffffffffffffffffffffffff160217905550808273ffffffffffffffffffffffffffffffffffffffff1661167e83610cca565b73ffffffffffffffffffffffffffffffffffffffff167f8c5be1e5ebec7d5bd14f71427d1e84f3dd0314c0f7b2291e5b200ac8c7c3b92560405160405180910390a45050565b600081600001549050919050565b6000806116de83610cca565b90508073ffffffffffffffffffffffffffffffffffffffff168473ffffffffffffffffffffffffffffffffffffffff161480611720575061171f8185611442565b5b8061175e57508373ffffffffffffffffffffffffffffffffffffffff1661174684610593565b73ffffffffffffffffffffffffffffffffffffffff16145b91505092915050565b8273ffffffffffffffffffffffffffffffffffffffff1661178782610cca565b73ffffffffffffffffffffffffffffffffffffffff16146117dd576040517f08c379a00000000000000000000000000000000000000000000000000000000081526004016117d490613628565b60405180910390fd5b600073ffffffffffffffffffffffffffffffffffffffff168273ffffffffffffffffffffffffffffffffffffffff160361184c576040517f08c379a0000000000000000000000000000000000000000000000000000000008152600401611843906136ba565b60405180910390fd5b611859838383600161224c565b8273ffffffffffffffffffffffffffffffffffffffff1661187982610cca565b73ffffffffffffffffffffffffffffffffffffffff16146118cf576040517f08c379a00000000000000000000000000000000000000000000000000000000081526004016118c690613628565b60405180910390fd5b6004600082815260200190815260200160002060006101000a81549073ffffffffffffffffffffffffffffffffffffffff02191690556001600360008573ffffffffffffffffffffffffffffffffffffffff1673ffffffffffffffffffffffffffffffffffffffff168152602001908152602001600020600082825403925050819055506001600360008473ffffffffffffffffffffffffffffffffffffffff1673ffffffffffffffffffffffffffffffffffffffff16815260200190815260200160002060008282540192505081905550816002600083815260200190815260200160002060006101000a81548173ffffffffffffffffffffffffffffffffffffffff021916908373ffffffffffffffffffffffffffffffffffffffff160217905550808273ffffffffffffffffffffffffffffffffffffffff168473ffffffffffffffffffffffffffffffffffffffff167fddf252ad1be2c89b69c2b068fc378daa952ba7f163c4a11628f55a4df523b3ef60405160405180910390a4611a5b8383836001612252565b505050565b60006002600083815260200190815260200160002060009054906101000a900473ffffffffffffffffffffffffffffffffffffffff169050919050565b8173ffffffffffffffffffffffffffffffffffffffff168373ffffffffffffffffffffffffffffffffffffffff1603611b0b576040517f08c379a0000000000000000000000000000000000000000000000000000000008152600401611b0290613726565b60405180910390fd5b80600560008573ffffffffffffffffffffffffffffffffffffffff1673ffffffffffffffffffffffffffffffffffffffff16815260200190815260200160002060008473ffffffffffffffffffffffffffffffffffffffff1673ffffffffffffffffffffffffffffffffffffffff16815260200190815260200160002060006101000a81548160ff0219169083151502179055508173ffffffffffffffffffffffffffffffffffffffff168373ffffffffffffffffffffffffffffffffffffffff167f17307eab39ab6107e8899845ad3d59bd9653f200f220920489ca2b5937696c3183604051611bfc919061273b565b60405180910390a3505050565b611c14848484611767565b611c2084848484612258565b611c5f576040517f08c379a0000000000000000000000000000000000000000000000000000000008152600401611c56906137b8565b60405180910390fd5b50505050565b600260075403611caa576040517f08c379a0000000000000000000000000000000000000000000000000000000008152600401611ca190613824565b60405180910390fd5b6002600781905550565b6001816000016000828254019250508190555050565b6001600781905550565b600073ffffffffffffffffffffffffffffffffffffffff168273ffffffffffffffffffffffffffffffffffffffff1603611d43576040517f08c379a0000000000000000000000000000000000000000000000000000000008152600401611d3a90613890565b60405180910390fd5b611d4c816121a1565b15611d8c576040517f08c379a0000000000000000000000000000000000000000000000000000000008152600401611d83906138fc565b60405180910390fd5b611d9a60008383600161224c565b611da3816121a1565b15611de3576040517f08c379a0000000000000000000000000000000000000000000000000000000008152600401611dda906138fc565b60405180910390fd5b6001600360008473ffffffffffffffffffffffffffffffffffffffff1673ffffffffffffffffffffffffffffffffffffffff16815260200190815260200160002060008282540192505081905550816002600083815260200190815260200160002060006101000a81548173ffffffffffffffffffffffffffffffffffffffff021916908373ffffffffffffffffffffffffffffffffffffffff160217905550808273ffffffffffffffffffffffffffffffffffffffff16600073ffffffffffffffffffffffffffffffffffffffff167fddf252ad1be2c89b69c2b068fc378daa952ba7f163c4a11628f55a4df523b3ef60405160405180910390a4611eed600083836001612252565b5050565b611efa826121a1565b611f39576040517f08c379a0000000000000000000000000000000000000000000000000000000008152600401611f309061398e565b60405180910390fd5b80600660008481526020019081526020016000209081611f599190613b5a565b507ff8e1a15aba9398e019f0b49df1a4fde98ee17ae345cb5f6b5e2c27f5033e8ce782604051611f899190612acd565b60405180910390a15050565b6040518060c001604052808381526020013373ffffffffffffffffffffffffffffffffffffffff1681526020013073ffffffffffffffffffffffffffffffffffffffff1681526020018281526020016000151581526020016000815250600c60008481526020019081526020016000206000820151816000015560208201518160010160006101000a81548173ffffffffffffffffffffffffffffffffffffffff021916908373ffffffffffffffffffffffffffffffffffffffff16021790555060408201518160020160006101000a81548173ffffffffffffffffffffffffffffffffffffffff021916908373ffffffffffffffffffffffffffffffffffffffff1602179055506060820151816003015560808201518160040160006101000a81548160ff02191690831515021790555060a082015181600501559050506120df333084611767565b817fb640004f1d14576d0c209e240cad0410e0d8c0c33a09375861fbadae2588a98d33308460006040516121169493929190613c2c565b60405180910390a25050565b606060405180602001604052806000815250905090565b6060612144826115b8565b600061214e612122565b9050600081511161216e5760405180602001604052806000815250612199565b80612178846123df565b604051602001612189929190613491565b6040516020818303038152906040525b915050919050565b60008073ffffffffffffffffffffffffffffffffffffffff166121c383611a60565b73ffffffffffffffffffffffffffffffffffffffff1614159050919050565b60007f01ffc9a7000000000000000000000000000000000000000000000000000000007bffffffffffffffffffffffffffffffffffffffffffffffffffffffff1916827bffffffffffffffffffffffffffffffffffffffffffffffffffffffff1916149050919050565b50505050565b50505050565b60006122798473ffffffffffffffffffffffffffffffffffffffff166124ad565b156123d2578373ffffffffffffffffffffffffffffffffffffffff1663150b7a026122a2611603565b8786866040518563ffffffff1660e01b81526004016122c49493929190613cc6565b6020604051808303816000875af192505050801561230057506040513d601f19601f820116820180604052508101906122fd9190613d27565b60015b612382573d8060008114612330576040519150601f19603f3d011682016040523d82523d6000602084013e612335565b606091505b50600081510361237a576040517f08c379a0000000000000000000000000000000000000000000000000000000008152600401612371906137b8565b60405180910390fd5b805181602001fd5b63150b7a0260e01b7bffffffffffffffffffffffffffffffffffffffffffffffffffffffff1916817bffffffffffffffffffffffffffffffffffffffffffffffffffffffff1916149150506123d7565b600190505b949350505050565b6060600060016123ee846124d0565b01905060008167ffffffffffffffff81111561240d5761240c612bde565b5b6040519080825280601f01601f19166020018201604052801561243f5781602001600182028036833780820191505090505b509050600082602001820190505b6001156124a2578080600190039150507f3031323334353637383961626364656600000000000000000000000000000000600a86061a8153600a858161249657612495613d54565b5b0494506000850361244d575b819350505050919050565b6000808273ffffffffffffffffffffffffffffffffffffffff163b119050919050565b600080600090507a184f03e93ff9f4daa797ed6e38ed64bf6a1f010000000000000000831061252e577a184f03e93ff9f4daa797ed6e38ed64bf6a1f010000000000000000838161252457612523613d54565b5b0492506040810190505b6d04ee2d6d415b85acef8100000000831061256b576d04ee2d6d415b85acef8100000000838161256157612560613d54565b5b0492506020810190505b662386f26fc10000831061259a57662386f26fc1000083816125905761258f613d54565b5b0492506010810190505b6305f5e10083106125c3576305f5e10083816125b9576125b8613d54565b5b0492506008810190505b61271083106125e85761271083816125de576125dd613d54565b5b0492506004810190505b6064831061260b576064838161260157612600613d54565b5b0492506002810190505b600a831061261a576001810190505b80915050919050565b6040518060c0016040528060008152602001600073ffffffffffffffffffffffffffffffffffffffff168152602001600073ffffffffffffffffffffffffffffffffffffffff16815260200160008152602001600015158152602001600081525090565b6000604051905090565b600080fd5b600080fd5b60007fffffffff0000000000000000000000000000000000000000000000000000000082169050919050565b6126d08161269b565b81146126db57600080fd5b50565b6000813590506126ed816126c7565b92915050565b60006020828403121561270957612708612691565b5b6000612717848285016126de565b91505092915050565b60008115159050919050565b61273581612720565b82525050565b6000602082019050612750600083018461272c565b92915050565b600081519050919050565b600082825260208201905092915050565b60005b83811015612790578082015181840152602081019050612775565b60008484015250505050565b6000601f19601f8301169050919050565b60006127b882612756565b6127c28185612761565b93506127d2818560208601612772565b6127db8161279c565b840191505092915050565b6000602082019050818103600083015261280081846127ad565b905092915050565b6000819050919050565b61281b81612808565b811461282657600080fd5b50565b60008135905061283881612812565b92915050565b60006020828403121561285457612853612691565b5b600061286284828501612829565b91505092915050565b600073ffffffffffffffffffffffffffffffffffffffff82169050919050565b60006128968261286b565b9050919050565b6128a68161288b565b82525050565b60006020820190506128c1600083018461289d565b92915050565b6128d08161288b565b81146128db57600080fd5b50565b6000813590506128ed816128c7565b92915050565b6000806040838503121561290a57612909612691565b5b6000612918858286016128de565b925050602061292985828601612829565b9150509250929050565b600081519050919050565b600082825260208201905092915050565b6000819050602082019050919050565b61296881612808565b82525050565b60006129798261286b565b9050919050565b6129898161296e565b82525050565b61299881612720565b82525050565b60c0820160008201516129b4600085018261295f565b5060208201516129c76020850182612980565b5060408201516129da6040850182612980565b5060608201516129ed606085018261295f565b506080820151612a00608085018261298f565b5060a0820151612a1360a085018261295f565b50505050565b6000612a25838361299e565b60c08301905092915050565b6000602082019050919050565b6000612a4982612933565b612a53818561293e565b9350612a5e8361294f565b8060005b83811015612a8f578151612a768882612a19565b9750612a8183612a31565b925050600181019050612a62565b5085935050505092915050565b60006020820190508181036000830152612ab68184612a3e565b905092915050565b612ac781612808565b82525050565b6000602082019050612ae26000830184612abe565b92915050565b600080600060608486031215612b0157612b00612691565b5b6000612b0f868287016128de565b9350506020612b20868287016128de565b9250506040612b3186828701612829565b9150509250925092565b600060208284031215612b5157612b50612691565b5b6000612b5f848285016128de565b91505092915050565b612b7181612720565b8114612b7c57600080fd5b50565b600081359050612b8e81612b68565b92915050565b60008060408385031215612bab57612baa612691565b5b6000612bb9858286016128de565b9250506020612bca85828601612b7f565b9150509250929050565b600080fd5b600080fd5b7f4e487b7100000000000000000000000000000000000000000000000000000000600052604160045260246000fd5b612c168261279c565b810181811067ffffffffffffffff82111715612c3557612c34612bde565b5b80604052505050565b6000612c48612687565b9050612c548282612c0d565b919050565b600067ffffffffffffffff821115612c7457612c73612bde565b5b612c7d8261279c565b9050602081019050919050565b82818337600083830152505050565b6000612cac612ca784612c59565b612c3e565b905082815260208101848484011115612cc857612cc7612bd9565b5b612cd3848285612c8a565b509392505050565b600082601f830112612cf057612cef612bd4565b5b8135612d00848260208601612c99565b91505092915050565b60008060008060808587031215612d2357612d22612691565b5b6000612d31878288016128de565b9450506020612d42878288016128de565b9350506040612d5387828801612829565b925050606085013567ffffffffffffffff811115612d7457612d73612696565b5b612d8087828801612cdb565b91505092959194509250565b600067ffffffffffffffff821115612da757612da6612bde565b5b612db08261279c565b9050602081019050919050565b6000612dd0612dcb84612d8c565b612c3e565b905082815260208101848484011115612dec57612deb612bd9565b5b612df7848285612c8a565b509392505050565b600082601f830112612e1457612e13612bd4565b5b8135612e24848260208601612dbd565b91505092915050565b60008060408385031215612e4457612e43612691565b5b600083013567ffffffffffffffff811115612e6257612e61612696565b5b612e6e85828601612dff565b9250506020612e7f85828601612829565b9150509250929050565b60008060408385031215612ea057612e9f612691565b5b6000612eae858286016128de565b9250506020612ebf858286016128de565b9150509250929050565b7f4e487b7100000000000000000000000000000000000000000000000000000000600052602260045260246000fd5b60006002820490506001821680612f1057607f821691505b602082108103612f2357612f22612ec9565b5b50919050565b7f4552433732313a20617070726f76616c20746f2063757272656e74206f776e6560008201527f7200000000000000000000000000000000000000000000000000000000000000602082015250565b6000612f85602183612761565b9150612f9082612f29565b604082019050919050565b60006020820190508181036000830152612fb481612f78565b9050919050565b7f4552433732313a20617070726f76652063616c6c6572206973206e6f7420746f60008201527f6b656e206f776e6572206f7220617070726f76656420666f7220616c6c000000602082015250565b6000613017603d83612761565b915061302282612fbb565b604082019050919050565b600060208201905081810360008301526130468161300a565b9050919050565b7f4e487b7100000000000000000000000000000000000000000000000000000000600052601160045260246000fd5b600061308782612808565b915061309283612808565b92508282039050818111156130aa576130a961304d565b5b92915050565b60006130bb82612808565b91506130c683612808565b92508282019050808211156130de576130dd61304d565b5b92915050565b7f4e487b7100000000000000000000000000000000000000000000000000000000600052603260045260246000fd5b600061311e82612808565b91507fffffffffffffffffffffffffffffffffffffffffffffffffffffffffffffffff82036131505761314f61304d565b5b600182019050919050565b7f4552433732313a2063616c6c6572206973206e6f7420746f6b656e206f776e6560008201527f72206f7220617070726f76656400000000000000000000000000000000000000602082015250565b60006131b7602d83612761565b91506131c28261315b565b604082019050919050565b600060208201905081810360008301526131e6816131aa565b9050919050565b7f4552433732313a20696e76616c696420746f6b656e2049440000000000000000600082015250565b6000613223601883612761565b915061322e826131ed565b602082019050919050565b6000602082019050818103600083015261325281613216565b9050919050565b7f4552433732313a2061646472657373207a65726f206973206e6f74206120766160008201527f6c6964206f776e65720000000000000000000000000000000000000000000000602082015250565b60006132b5602983612761565b91506132c082613259565b604082019050919050565b600060208201905081810360008301526132e4816132a8565b9050919050565b7f506c65617365207375626d6974207468652061736b696e672070726963650000600082015250565b6000613321601e83612761565b915061332c826132eb565b602082019050919050565b6000602082019050818103600083015261335081613314565b9050919050565b7f5072696365206d757374206265206174206c6561737420312077656900000000600082015250565b600061338d601c83612761565b915061339882613357565b602082019050919050565b600060208201905081810360008301526133bc81613380565b9050919050565b7f5072696365206d75737420626520657175616c20746f206c697374696e67207060008201527f7269636500000000000000000000000000000000000000000000000000000000602082015250565b600061341f602483612761565b915061342a826133c3565b604082019050919050565b6000602082019050818103600083015261344e81613412565b9050919050565b600081905092915050565b600061346b82612756565b6134758185613455565b9350613485818560208601612772565b80840191505092915050565b600061349d8285613460565b91506134a98284613460565b91508190509392505050565b7f546f6b656e20646f6573206e6f74206578697374000000000000000000000000600082015250565b60006134eb601483612761565b91506134f6826134b5565b602082019050919050565b6000602082019050818103600083015261351a816134de565b9050919050565b7f416c7265616479206c696b65642074686973204e465400000000000000000000600082015250565b6000613557601683612761565b915061356282613521565b602082019050919050565b600060208201905081810360008301526135868161354a565b9050919050565b60006040820190506135a2600083018561289d565b6135af6020830184612abe565b9392505050565b7f4552433732313a207472616e736665722066726f6d20696e636f72726563742060008201527f6f776e6572000000000000000000000000000000000000000000000000000000602082015250565b6000613612602583612761565b915061361d826135b6565b604082019050919050565b6000602082019050818103600083015261364181613605565b9050919050565b7f4552433732313a207472616e7366657220746f20746865207a65726f2061646460008201527f7265737300000000000000000000000000000000000000000000000000000000602082015250565b60006136a4602483612761565b91506136af82613648565b604082019050919050565b600060208201905081810360008301526136d381613697565b9050919050565b7f4552433732313a20617070726f766520746f2063616c6c657200000000000000600082015250565b6000613710601983612761565b915061371b826136da565b602082019050919050565b6000602082019050818103600083015261373f81613703565b9050919050565b7f4552433732313a207472616e7366657220746f206e6f6e20455243373231526560008201527f63656976657220696d706c656d656e7465720000000000000000000000000000602082015250565b60006137a2603283612761565b91506137ad82613746565b604082019050919050565b600060208201905081810360008301526137d181613795565b9050919050565b7f5265656e7472616e637947756172643a207265656e7472616e742063616c6c00600082015250565b600061380e601f83612761565b9150613819826137d8565b602082019050919050565b6000602082019050818103600083015261383d81613801565b9050919050565b7f4552433732313a206d696e7420746f20746865207a65726f2061646472657373600082015250565b600061387a602083612761565b915061388582613844565b602082019050919050565b600060208201905081810360008301526138a98161386d565b9050919050565b7f4552433732313a20746f6b656e20616c7265616479206d696e74656400000000600082015250565b60006138e6601c83612761565b91506138f1826138b0565b602082019050919050565b60006020820190508181036000830152613915816138d9565b9050919050565b7f45524337323155524953746f726167653a2055524920736574206f66206e6f6e60008201527f6578697374656e7420746f6b656e000000000000000000000000000000000000602082015250565b6000613978602e83612761565b91506139838261391c565b604082019050919050565b600060208201905081810360008301526139a78161396b565b9050919050565b60008190508160005260206000209050919050565b60006020601f8301049050919050565b600082821b905092915050565b600060088302613a107fffffffffffffffffffffffffffffffffffffffffffffffffffffffffffffffff826139d3565b613a1a86836139d3565b95508019841693508086168417925050509392505050565b6000819050919050565b6000613a57613a52613a4d84612808565b613a32565b612808565b9050919050565b6000819050919050565b613a7183613a3c565b613a85613a7d82613a5e565b8484546139e0565b825550505050565b600090565b613a9a613a8d565b613aa5818484613a68565b505050565b5b81811015613ac957613abe600082613a92565b600181019050613aab565b5050565b601f821115613b0e57613adf816139ae565b613ae8846139c3565b81016020851015613af7578190505b613b0b613b03856139c3565b830182613aaa565b50505b505050565b600082821c905092915050565b6000613b3160001984600802613b13565b1980831691505092915050565b6000613b4a8383613b20565b9150826002028217905092915050565b613b6382612756565b67ffffffffffffffff811115613b7c57613b7b612bde565b5b613b868254612ef8565b613b91828285613acd565b600060209050601f831160018114613bc45760008415613bb2578287015190505b613bbc8582613b3e565b865550613c24565b601f198416613bd2866139ae565b60005b82811015613bfa57848901518255600182019150602085019450602081019050613bd5565b86831015613c175784890151613c13601f891682613b20565b8355505b6001600288020188555050505b505050505050565b6000608082019050613c41600083018761289d565b613c4e602083018661289d565b613c5b6040830185612abe565b613c68606083018461272c565b95945050505050565b600081519050919050565b600082825260208201905092915050565b6000613c9882613c71565b613ca28185613c7c565b9350613cb2818560208601612772565b613cbb8161279c565b840191505092915050565b6000608082019050613cdb600083018761289d565b613ce8602083018661289d565b613cf56040830185612abe565b8181036060830152613d078184613c8d565b905095945050505050565b600081519050613d21816126c7565b92915050565b600060208284031215613d3d57613d3c612691565b5b6000613d4b84828501613d12565b91505092915050565b7f4e487b7100000000000000000000000000000000000000000000000000000000600052601260045260246000fdfea26469706673582212207789b046c4dc24476f2244a5a541e3d7032214932567b10c91d037c7782092aa64736f6c63430008110033",
  "linkReferences": {},
  "deployedLinkReferences": {}
}